:020000040800F2
:1000000050FF0020DD010008A72E00082B2C00085F
:10001000A52E0008170F0008E136000800000000B8
:100020000000000000000000000000004501000882
:10003000190F00080000000089010008FD320008C7
:10004000F7010008F7010008F7010008F7010008B0
:10005000F7010008F7010008F7010008F7010008A0
:10006000F7010008F7010008F7010008F701000890
:10007000F7010008F7010008F7010008F701000880
:10008000F7010008F7010008F7010008F701000870
:10009000F7010008F7010008F7010008F701000860
:1000A000F7010008F7010008F7010008F701000850
:1000B000F7010008F7010008F7010008F701000840
:1000C000F7010008F7010008F7010008F701000830
:1000D000F7010008C9360008D5360008F701000806
:1000E000F7010008F7010008F7010008F701000810
:1000F000F7010008F7010008F7010008F701000800
:10010000F7010008F7010008F7010008F7010008EF
:10011000F7010008F701000889330008F70100081B
:10012000F7010008F7010008F7010008F7010008CF
:10013000DFF80CD000F0F2FB004800472151000826
:1001400050FF0020224B19680868B0E8F00F80F3D8
:100150000988BFF36F8F4FF0000080F311884EF0D5
:100160000D0E70470000000006480068006880F32C
:10017000088862B661B6BFF34F8FBFF36F8F00DFA1
:1001800000BF00BF08ED00E0EFF30980BFF36F8F01
:100190000F4B1A6820E9F00F106008B54FF05000BF
:1001A00080F31188BFF34F8FBFF36F8F06F088FB8A
:1001B0004FF0000080F31188BDE808401968086816
:1001C000B0E8F00F80F30988BFF36F8F704700BF6E
:1001D0001C000020EFF305807047000006488047B0
:1001E00006480047FEE7FEE7FEE7FEE7FEE7FEE71C
:1001F000FEE7FEE7FEE7FEE787330008310100086F
:1002000030B50B46014600202022012409E021FAE6
:1002100002F59D4205D303FA02F5491B04FA02F5E3
:100220002844151EA2F10102F1DC30BD202A04DBB6
:10023000203A21FA02F00021704721FA02F3D0405F
:10024000C2F12002914008431946704710B5431A85
:10025000934209D28318881803E010F8011D03F8AF
:10026000011D521EF9D210BD40EA01039B0703D0C5
:1002700009E008C9121F08C0042AFAD203E011F8E5
:10028000013B00F8013B521EF9D210BDD2B201E091
:1002900000F8012B491EFBD270470022F6E710B58B
:1002A00013460A4604461946FFF7F0FF204610BDE4
:1002B00010B5044604E00B7800F8013B03B1491C7B
:1002C000521EF8D2204610BDCAB2401E10F8011FBF
:1002D0008A4202D00029F9D100207047421C10F850
:1002E000011B0029FBD1801A704710B5002200E0E5
:1002F000521C835C8C5CA34201D1002BF8D1D8B294
:10030000E1B2401A10BDCBB203E00178994203D0AC
:10031000401C521EF9D200207047034611F8012BF1
:1003200000F8012B002AF9D11846704700F098B860
:1003300030B5041E71F1000404DB4FF0004440426C
:1003400064EB0101141E73F1000405DB1C464FF041
:100350000043524263EB04038B4208BF824230BD2C
:100360002DE9F05F0546002092469B4688460646EA
:10037000814640241BE02846414647462246FFF777
:1003800055FF53465A46C01A914110D3114618469C
:10039000224600F0D5FA2D1A67EB01084F46224697
:1003A0000120002100F0CCFA17EB00094E41201E7D
:1003B000A4F10104DFDC484631462A464346BDE845
:1003C000F09F00000FB4002300B589B00CA9009184
:1003D0000B996FF00042CB601E4B06931E4B0793A8
:1003E0000423CDE901321D4A089202466B460020E3
:1003F00000F06AFB09B05DF814FB70B586B00646E4
:100400004FF0FF300091CDE90101002015460C4668
:1004100004903246694604A8FFF7D4FF02460498C8
:10042000211825B108B1084600E02046286004984C
:1004300000280DD0002A02DD0098884208D0081B51
:100440000094CDE901043246694604A8FFF7BAFFDB
:1004500006B070BD010D00081F0D00088D090008D1
:100460002DE9F04791460E4680460446002514F8D3
:10047000017B2FB100F086FA0068C05DC007F6D19D
:100480002B2F02D02D2F1ED0641E4A463146204607
:1004900000F056FC26B13268A24201D1C6F80080B5
:1004A0006A054FF0020418D50023D0EB030563EB77
:1004B00001025D1B934109DB0023D0EB030063EBDA
:1004C0000101BDE8F08745F48065DEE703F090F9AF
:1004D000046000204FF00041F3E7021E71F10002BA
:1004E000EFDA03F085F904604FF0FF304108E8E7E8
:1004F00010B5141E73F1000408DA401C41F100012C
:1005000092185B411A4301D120F0010010BD2DE982
:10051000F04D92469B4611B1B1FA81F202E0B0FA79
:1005200080F22032904600F00BFA04460F4640EA73
:100530000A0041EA0B0153465A46084313D01146BC
:1005400053EA010019D0C8F140025046FFF76EFE91
:1005500005460E4650465946424600F0F1F908431A
:1005600005D0012004E020463946BDE8F08D00208A
:10057000054346EAE0762C4337430A986305E40ACC
:10058000A0EB08000022FD0A44EA47540A3002D5D5
:1005900000200146E9E7010510196941DDE9084538
:1005A00000196941BDE8F04DA2E72DE9FE4F8046F4
:1005B00081EA0300C00F0C46009021F0004123F0B7
:1005C0000045B8EB0200A94105D2404621469046BD
:1005D0001C460B46024623F00040104347D0270D2F
:1005E000C7F30A00C3F30A510290401A0190402851
:1005F0006BDAC3F3130040F4801B0098924620B1DD
:100600000023D2EB030A63EB0B0B01985946C0F1B0
:100610004002504600F094F906460D4650465946B1
:10062000019A00F09CF910EB08006141002487EA70
:10063000115284EAE7731A4340D0009A62B3019AD8
:10064000012A4FEA075215DC001B61EB02014FF053
:10065000004202EA0752CDE90042001C41F5801138
:1006600032462B46FFF753FF03B0BDE8F08F4046FC
:100670002146F9E7001B61EB0201001C41F58013E4
:1006800000185B412018A2F5001747EB030140EA70
:10069000D570B6196D4111E06D084FEA360645EA8E
:1006A000C0754FEA0752001B61EB0201001C41F5C7
:1006B000801149084FEA30000019514132462B465B
:1006C00003B0BDE8F04FFFF713BF009801224000D0
:1006D0000023D0EB020263EBE073009821464FEA5F
:1006E000E074B8EB000061EB0401E9E783F000433C
:1006F0005BE781F0004158E72DE9FE4F81EA0304F2
:1007000004F0004421F0004100944FF0000B23F06E
:10071000004350EA01045ED052EA03045BD0C3F305
:100720000A54C1F30A552C44A4F2F3340194A0FBFB
:100730000254C1F3130141F48011C3F3130343F4D2
:10074000801301FB024400FB034E840A970A44EA2B
:10075000815447EA8357A4FB076802958D0A05FB7D
:1007600007854FEA932C04FB0C542705029D4FEAA2
:10077000065847EA1637B5EB08056EEB070C870EEF
:10078000920E47EA811742EA8312A7FB0201B6EBF9
:100790000B0164EB00042B0D43EA0C335E1844EBB1
:1007A0001C50DA465146E7FB0201C5F313044FEA39
:1007B0000B3343EA14534FEA0432019C43EA060325
:1007C000A4F10C040294009CCDE900B4FFF79FFE55
:1007D00003B0BDE8F08F00200146F9E72DE9F04DA8
:1007E00081EA030404F0004B21F0004514464FF069
:1007F000000A23F0004150EA050220D054EA010229
:100800001DD0C5F30A570246C5F31303C1F3130005
:10081000C1F30A5640F4801543F48013A7EB060891
:10082000101BD64608F2FD3873EB050002D308F121
:10083000010801E092185B41B8F1000F03DA0020D3
:100840000146BDE8F08D00204FF480110646844635
:100850000EE0171B73EB050705D3121B63EB0503B3
:1008600006434CEA010C49084FEA300092185B41FC
:1008700050EA0107EDD152EA030012D082EA0400E7
:1008800083EA0501084305D0101BAB4106D20122C3
:10089000002306E000224FF0004302E06FF0010267
:1008A00053101AEB06004CEB085110EB0A0041EB19
:1008B0000B01BDE8F04DFFF71BBEC1F30A52C1F3B7
:1008C000130140F2FF3341F480119A4202DA002012
:1008D0000146704740F233439A42A2F2334202DCAF
:1008E0005242FFF7A3BC00F02BB8000030B5041E45
:1008F00071F1000404DB4FF00044404264EB01015D
:10090000141E73F1000405DB1C464FF000435242F5
:1009100063EB0403994208BF904230BD064C074D7B
:1009200006E0E06840F0010394E8070098471034BF
:10093000AC42F6D3FFF700FC387500085875000884
:10094000202A04DB203A00FA02F10020704791408F
:10095000C2F1200320FA03F3194390407047202A84
:1009600006DBCB17203A41FA02F043EAE07306E0D7
:1009700041FA02F3D040C2F12002914008431946E7
:1009800070470000004870470875000810B504461D
:10099000FFF7F8FF0068005D00F0010010BD0000E7
:1009A0002DE9FF4F087883B09946FF2805D0491CF0
:1009B0002D2804D00024002008E000200BE00124B2
:1009C000F9E700EB800003EB4000491C0B78FF2B9C
:1009D000F7D104B1404200230293147819461D4612
:1009E0002D2C01D02B2C04D1521C2D2C13D00024E3
:1009F0000294AA461478FF2C0FD00A25A3FB057891
:100A000001FB05814FF0000C03FB0C11521CE31994
:100A10004AEB0101EEE70124EAE7814453EA0100D1
:100A200002D019F5C87F06DA03980021C0E9001149
:100A300007B0BDE8F08F0025AE4E2F46DFF8B88234
:100A4000184600F0ECF9CDE90001B9F1000002DA36
:100A5000C9F1000400E004460023A74A1AEB030B87
:100A600042EB045A12E0E00707D02A4633463846E4
:100A70004146FFF741FE074688462A463346104660
:100A80001946FFF739FE05460E466410002CEAD1E0
:100A9000DDE90001B9F1000F5A46534606DAFFF7C7
:100AA0009DFE3A464346FFF799FE05E0FFF724FE18
:100AB0003A464346FFF720FE029A0AB181F0004110
:100AC000039AC2E90001B3E72DE9FF4F1F468DB03D
:100AD000D7E901464FF0FF382E2045464FF0000978
:100AE0000B90B9696D1C0E988847396A8246884711
:100AF0000028F6D1BAF1FF3F0AD024F4D064002ECA
:100B000011DDBAF12B0F08D0BAF12D0F0BD102E095
:100B1000404611B08DE744F48064B9696D1C0E98AD
:100B200088478246761E6946600501D52D2000E083
:100B30002B208DF8000001F1010B0DF1200809E0D8
:100B4000B9696D1C0E98884782460F9844F400746A
:100B5000761E0560002E02DDBAF1300FF0D00B9941
:100B60008A453ED144F0800406E00F99681CA9F143
:100B7000010944F400740860B9696D1C761E0E9872
:100B8000884782463028F0D02BE00B998A4505D162
:100B9000200603D444F08004761E18E0504602F08C
:100BA000FDFE08B30DF11301761E44F400748B456D
:100BB00008D2AAF130000BF8010B200607D5A9F1E5
:100BC000010003E0200602D409F101008146A005DE
:100BD00002D50F99681C0860B9696D1C0E9888478A
:100BE0008246002ED1DC53E0002E51DDBAF1650FB4
:100BF00002D0BAF1450F4BD1A00549D5B9696D1C9A
:100C000024F44074761E0E9888478246002E0CDD30
:100C10002B2804D0BAF12D0F07D144F48074B969A0
:100C20006D1C0E9888478246761EE00501D52D2161
:100C300000E02B2108F8011BCDF82C8021E00DF1FC
:100C40002901761E44F4007488450CD2AAF13000C4
:100C500010F0FF0088F8000002D10B99884509D9EF
:100C600008F1010806E0E00501D5244801E042F260
:100C70000F708146B9696D1C0E98884782460F989F
:100C80000560002E04DD504602F088FE0028D6D113
:100C9000F9690E988847FF208BF8000088F800005B
:100CA0000020069007904B466A4608A906A8FFF761
:100CB00077FEA00502D46FF001002AE714F0240F9C
:100CC0000AD0E00714D1DDE906123868031D3B6045
:100CD0000068C0E900120BE0DDE9060100F0ABF8A6
:100CE0000146E00704D13868021D3A6000680160DF
:100CF00028460EE7000014400000F03FF1D8FFFF47
:100D0000426842B1016811F8013B23B1521EC0E9AB
:100D10000012184670470121C160881E7047426862
:100D20005AB1C368016843B983688B4205D0491E34
:100D3000521CC0E90012002070474FF0FF3070478E
:100D40002DE9F74F4FF00009009C1546CA4614F8EC
:100D5000010B302801D0ADB115E014F8010B4FF0B4
:100D60000109782803D0582801D04DB10BE00DB10E
:100D7000102D08D14FF00009102514F8010B02E0E6
:100D8000082500E00A2500273E46B8464FEAE57BE5
:100D900016E0A5FB07230BFB073105FB080005FB4D
:100DA0000616030CD71846F100061FFA80F8381E05
:100DB0004FF0010976F5803000D3CA4614F8010BD4
:100DC000294600F01EF80028E3DA019838B1B9F19D
:100DD000000F01D0641E00E0009C01980460BAF18D
:100DE000000F08D002F004FD02210160C81E014678
:100DF00003B0BDE8F08F310441EA174148EA0740EB
:100E0000F6E73A2800D2303820F02002412A01D3F8
:100E1000A2F13700884201D34FF0FF3070470EB582
:100E200040F2334202920022CDE900221346FFF73E
:100E30006EFB03B000BD01F0004330B421F000416F
:100E400050EA010206D00A0DA2F56072C1F3130147
:100E5000002A02DC30BC00207047440F44EAC10481
:100E6000C100E01830BC00EBC250AFF30080002995
:100E7000A8BF7047401C490008BF20F00100704720
:100E800010B4B0FA80FC00FA0CF050EA010404BF80
:100E900010BC704749B1CCF1200421FA04F411FAD6
:100EA0000CF118BF012121430843A3EB0C01CB1D1A
:100EB0004FEA00614FEA102042BF002010BC70478B
:100EC00000EBC35010440029A4BF10BC7047401C65
:100ED000490008BF20F0010010BC704730B58C18E5
:100EE00010F8012B12F00F0301D110F8013B120989
:100EF00006D110F8012B03E010F8015B01F8015B4B
:100F00005B1EF9D101E001F8013B521EFBD1A14269
:100F1000E6D3002030BDFEE77047000070B5A2B0F8
:100F200001F084FE2622B7490FA8FFF78FF9B54CD0
:100F3000E08CADF8620054F8280F1990A088ADF845
:100F40006800E088ADF86A00A0681B90E0681C901B
:100F5000AC49092238310E461DA8FFF777F9607EAB
:100F60008DF87D00A07E8DF87E00E06920901B202A
:100F70000E90382213A96846FFF768F90FAD95E87F
:100F80000F0002F0DDFA26229E490FA8FFF75EF956
:100F900034F8020CADF8620020681990A088ADF812
:100FA0006800E088ADF86A00A0681B90E0681C90BB
:100FB000092231461DA8FFF749F9607E8DF87D00B2
:100FC000A07E8DF87E00E06920902325382213A9A9
:100FD00068460E95FFF73AF90DF13C0C9CE80F00BE
:100FE00002F0AEFA262287490FA8FFF72FF934F84E
:100FF000020CADF8620020681990A088ADF8680076
:10100000E088ADF86A00A0681B90E0681C90092297
:1010100031461DA8FFF71AF9607E8DF87D00A07E8D
:101020008DF87E00E0692090382213A968460E955D
:10103000FFF70CF90FAD95E80F0002F081FA2622B8
:1010400070490FA8FFF702F934F8020CADF86200FE
:1010500020681990A088ADF86800E088ADF86A00B3
:10106000A0681B90E0681C90092231461DA8FFF77C
:10107000EDF8607E8DF87D00A07E8DF87E00E06941
:10108000209053200E90382213A96846FFF7DEF80F
:1010900095E80F0002F054FA26225A490FA8FFF7EC
:1010A000D5F834F8020CADF8620020681990A088D9
:1010B000ADF86800E088ADF86A00A0681B90E068B1
:1010C0001C90092231461DA8FFF7C0F8607E8DF8FC
:1010D0007D00A07E8DF87E00E069209054200E9067
:1010E000382213A96846FFF7B1F895E80F0002F01F
:1010F00027FA262243490FA8FFF7A8F834F8020C74
:10110000ADF8620020681990A088ADF86800E0880A
:10111000ADF86A00A0681B90E0681C900922314677
:101120001DA8FFF793F8607E8DF87D00A07E8DF8F6
:101130007E00E069209044200E90382213A9684672
:10114000FFF784F895E80F0002F0FAF926222D49FE
:101150000FA8FFF77BF834F8020CADF862002068A6
:101160001990A088ADF86800E088ADF86A00A06822
:101170001B90E0681C90092231461DA8FFF766F815
:10118000607E8DF87D00A07E8DF87E00E069209065
:1011900050200E90382213A96846FFF757F895E8BB
:1011A0000F0002F0CDF9262216490FA8FFF74EF8DE
:1011B00034F8020CADF8620020681990A088ADF8F0
:1011C0006800E088ADF86A00A0681B90E0681C9099
:1011D000092231461DA8FFF739F8607E8DF87D00A1
:1011E000A07E8DF87E00E069209027200E903822A6
:1011F00013A96846FFF72AF895E80F0002F0A0F956
:1012000022B070BD9C6400200FB430B59BB00120AB
:1012100001F028FF01F00AFD012001F083FE012109
:10122000084601F0BFFFA4A001F03EFE01F0FEFC65
:10123000012001F077FEA3A001F036FE01F0F6FCDC
:10124000012001F06FFE0121084601F0ABFF5AAA10
:10125000A5A102A802F06EFA02A801F025FE01F095
:10126000E5FC012001F05EFE0121084601F09AFF35
:101270002EAA9EA102A802F05DFA02A801F014FEB7
:10128000002001F0EFFE01F0D1FC012001F04AFE48
:101290004EAA97A102A802F04DFA02A801F004FE9E
:1012A000012001F0DFFE01F0C1FC012001F03AFE57
:1012B00093A001F0F9FD002001F0D4FE01F0B6FC8E
:1012C000002001F02FFE0121084601F06BFF5EAA0D
:1012D00094A102A802F02EFA02A801F0E5FD012077
:1012E00001F0C0FE01F0A2FC012001F01BFE84A071
:1012F00001F0DAFD002001F0B5FE01F097FC8CA0B2
:1013000001F0D2FD00241EAD1AE000BF01F08EFCFA
:1013100004EB840000EBC40005EBC00202F5017190
:10132000D2F82402CDE90001D2F8283289A102A81E
:1013300002F5E27202F0FEF902A801F0B5FD641CAC
:101340008E98A042E2DC012001F08CFE01F06EFCE0
:10135000012001F0E7FD6AA001F0A6FD002001F0E8
:1013600081FE01F063FC012001F0DCFD0121084653
:1013700001F018FF1EAA7DA102A802F0DBF902A865
:1013800001F092FD012001F06DFE01F04FFC012003
:1013900001F0C8FD5AA001F087FD002001F062FEB7
:1013A00001F044FC012001F0BDFD0121084601F0DF
:1013B000F9FE7EAA71A102A802F0BCF902A801F010
:1013C00073FD01F033FC012001F0ACFD0121084662
:1013D00001F0E8FE56AA6FA102A802F0ABF902A83C
:1013E00001F062FD01F022FC012001F09BFD26AA24
:1013F0006CA102A802F09EF902A801F055FD01209F
:1014000001F030FE01F012FC012001F08BFD3CA048
:1014100001F04AFD002001F025FE01F007FC01204B
:1014200001F080FD0121084601F0BCFE61A001F041
:101430003BFD022004F0DEFD01F0F8FB012001F08D
:1014400071FD0121084601F0ADFE5CA001F02CFD0C
:10145000022004F0CFFD012001F004FE01F0E6FBC4
:10146000012001F05FFD26A001F01EFD002001F02B
:10147000F9FD01F0DBFB012001F054FD55A001F066
:1014800013FD012001F0EEFD01F0D0FB012001F081
:1014900049FD1BA001F008FD002001F0E3FD042040
:1014A00004F0A8FD01F0C2FB51A001F0FDFC1BB04F
:1014B00030BC5DF814FB0000457A3443616E7465FE
:1014C000656E00003D3D3D3D3D3D3D3D3D3D3D3D6D
:1014D0003D3D3D3D3D3D3D3D3D3D3D3D3D3D3D3D3C
:1014E0003D3D3D3D000000002325730025730000B5
:1014F000CFC2B5A5CAB1BCE43A20257300000000F4
:101500002D2D2D2D2D2D2D2D2D2D2D2D2D2D2D2D0B
:101510002D2D2D2D2D2D2D2D2D2D2D2D2D2D2D2DFB
:1015200000000000B1B8D7A2A3BA257300000000E4
:101530002020202020202020B2CBC3FB20202020F0
:101540002020B5A5BCDB20CAFDC1BF20D7DCBCDB99
:1015500000000000252D31387320252D3264202015
:1015600058252D326420253573000000D7DCBCC619
:10157000A3BA2020A3A4257300000000CFC2B5A504
:10158000C8CBA3BA257320CFC8C9FA2FC5AECABF2E
:1015900000000000C1AACFB5B7BDCABDA3BA25736C
:1015A00000000000B6A9B5A5B1E0BAC5A3BA25737D
:1015B000000000004E4F544943450000C4C3B5BD70
:1015C000B2CDBAF3A3ACC7EBBEA1BFECCAB3D3C3D1
:1015D000C5B67E00C9CCBCD2C1AACFB5B5E7BBB0F9
:1015E000A3BA31333538373637303733310000005E
:1015F000200000002DE9F04FADF5017D7B21FEF7C5
:1016000063FE00287DD040AA002103F00BF90700FB
:1016100078D088A103F06AF9824688A1384603F0A1
:1016200065F9064689A1384603F060F9054689A1A7
:10163000384603F05BF9809089A1384603F056F9EB
:1016400083468BA1384603F051F97F908AA1384632
:1016500003F04CF981468AA1384603F047F98046E9
:1016600089A1384603F042F904468AA1384603F0BE
:101670003DF9BAF1000F79D0002E77D0002D75D04A
:101680008099002972D0BBF1000F6FD07F9900299B
:101690006CD0B9F1000F69D0B8F1000F66D0002C02
:1016A00064D0002862D0504603F07CF901461F2226
:1016B0007C48FEF7FDFD284603F074F901467948A1
:1016C0001F222030FEF7F4FD584603F06BF9014667
:1016D00074481F22C030FEF7EBFD7F9803F062F9DB
:1016E000014670480F22E030FEF7E2FD484603F065
:1016F00059F901466B480F22F030FEF7D9FD80986A
:1017000001E026E02DE003F04DF9694604F006FE05
:1017100064487F2269464030FEF7CAFD204603F048
:1017200041F9694604F0FAFD1F2269465E48FEF75A
:10173000BFFD404603F036F9694604F0EFFD5A4814
:101740007F2269468038FEF7B3FD3078012811D03A
:101750006BE056A001F0C6FF0DF5017DBDE8F08FEE
:1017600004E057A956A001F0BDFFF5E75AA001F02B
:10177000B9FF5AE0304602F0CDFF1E2800D91E20E6
:10178000484D0024C5F8C0014BE02146304602F028
:101790008DFF81465AA103F0A9F8804625A148464D
:1017A00003F0A4F8824658A1484603F09FF8834608
:1017B00057A1484603F09AF88146B8F1000F2FD0A0
:1017C000BAF1000F2CD098F80000022828D19AF81E
:1017D0000000022824D1404603F0E4F8694604F0F2
:1017E0009DFD04EB840000EBC40005EBC00808F588
:1017F000E2703F226946FEF75BFD504603F0D2F8E7
:10180000014608F501701F22FEF752FD584602F00E
:10181000FDFFC8F82402484602F0F8FFC8F8280285
:10182000641CD5F8C001A042AFD8384602F07BFF57
:1018300092E70000616D6F756E740000676F6F64F2
:101840007344657461696C73000000006F726465B5
:10185000724E6F00706F73747363726970740000FE
:10186000636F6D706C6574656454696D650000002C
:101870006D6F62696C650000736F72744E756D00F8
:1018800072656D61726B0000757365724E616D6596
:101890000000000054617267657444657669636591
:1018A0000000000058910020D89200204A534F4E6B
:1018B000206E6F7420666F756E640D0A0000000064
:1018C0004A534F4E2070617273696E672065727261
:1018D0006F723A2025730A004F6E65206F72206D7B
:1018E0006F7265204A534F4E206669656C647320A1
:1018F000617265206D697373696E670A000000008C
:101900006E616D65000000006E756D6265720000AD
:10191000707269636500000072B6FEE7124C134EE8
:10192000ADF6E85D4FF0FF3740F6E45804F11005DE
:101930003946012004F0A8FC90B104F039FE42467B
:1019400029466846FEF782FC94E80F00FFF75CFC2E
:1019500007A001F0C7FE3068401E306004F048FE6A
:101960000A2004F0F9FEE3E75891002094000020DB
:10197000B4A6C0EDCDEAB3C9D2BBCCF50D0A0000C8
:10198000144F154E386800B3DFF85080002400BFB4
:1019900006EB8420054612A1FEF7A7FC90B112A029
:1019A00001F0A0FE04F004FE2846FFF723FED8F85D
:1019B000000005F023FB00230222194605F0BAFAC5
:1019C00004F016FE641C0A2CE2DB0A2003F0F2FB92
:1019D000D8E700009400002098000020147400084C
:1019E0004E554C4C00000000B7A2CFD6C1CBD2BBA5
:1019F000B8F6B4FDB4A6C0EDB5C4D0C5CFA20D0AEB
:101A00000000000010B590F821100022022905D036
:101A10000421816380F82020012010BD01680B683B
:101A200023F00E030B6001680B6823F001030B60C9
:101A300090F84030C46B012101FA03F3636080F831
:101A4000211080F82020104610BD00002DE9F05F25
:101A500090F821100024022903D00421816301247D
:101A600085E001680A6822F00E020A6001680A68CF
:101A700022F001020A603F4E3E4FB215DFF8F4C07B
:101A8000DFF8F090DFF8ECA0DFF8E8B0DFF8E4E092
:101A90000168783F13011502ACF1640CA9F15009FB
:101AA000AAF13C0AABF1280BAEF1140E4FF48018EA
:101AB000B14227D9B9420ED0614512D049451DD057
:101AC000514518D0594518D0714501D1424615E00D
:101AD000294EB14201D1012210E0274E1436B14205
:101AE00001D110220AE0244E2836B14206D0224A03
:101AF0003C32914201D11A4600E02A461E49091F94
:101B00000A602BE0B94213D0614517D0494522D075
:101B100051451DD059451DD0714501D142461AE0AD
:101B2000B14202D14FF0807215E0134EB14201D1A3
:101B3000012210E0104E1436B14201D110220AE009
:101B40000D4E2836B14206D00B4A3C32914201D1AB
:101B50001A4600E02A46074980394A60012180F888
:101B60002110002180F82010416B01B188472046E8
:101B7000BDE8F09F80000240080402402DE9F84FC4
:101B8000DFF8C8910024A9F1040B23460F2709F1BF
:101B9000040AABF1040ED1E00125A54006EA0502D6
:101BA000AA4276D1DFF8A8C14E68A6EB0C086645BC
:101BB0002BD00DDC032E34D005DC36B3012E19D02A
:101BC000022E2FD11BE0112E16D0122E2AD119E091
:101BD000B8F5881F19D006DCB8F5803F15D0B8F5E8
:101BE000801F1FD111E0B8F5001F0ED0B8F5041FFB
:101BF00018D10AE0CB6815E0CB681B1D12E0CB685A
:101C000008330FE0CB680C330CE08B682BB1012B51
:101C10004FF0080303D0456104E0042302E00561AE
:101C200000E00023FF2A01D8064601E000F1040687
:101C30004FEA840501D9A5F12005D6F8008007FAFE
:101C400005FC28EA0C0803FA05F548EA0508C6F879
:101C500000804D68ED0070D53E4DAE6946F001063E
:101C6000AE61AD6924F0030605F0010500953A4D1B
:101C700006EB050CDCF80850A607360F07FA06F845
:101C800025EA0805DFF8D480404503D14FF000086D
:101C900025E052E0DFF8C880404502D14FF001084E
:101CA0001DE0DFF8C080404502D14FF0020816E089
:101CB000DFF8B480404502D14FF003080FE0DFF8B1
:101CC000AC80404502D14FF0040808E0DFF8A08066
:101CD000404502D14FF0050801E04FF0060808FA30
:101CE00006F848EA0508CCF808804D68D9F8006085
:101CF000ED024D4601D5164300E096432E604D6837
:101D0000DAF80060AD02554601D5164300E096436F
:101D10002E604D68DBF80060AD035D4601D51643CB
:101D200000E096432E604D68DEF80060ED037546D6
:101D300001D5164300E096432E60641C0A681646DF
:101D4000E2407FF429AFBDE8F88F000008040140AD
:101D50000000111000100240000001400008014086
:101D6000000C014000100140001401400018014027
:101D7000001C01400AB1016170470904FBE7000043
:101D800001488068704700000C000020024881680C
:101D900002781144816070470C000020074810B59C
:101DA000016841F010010160032000F0A7F80F2046
:101DB00000F006F800F050F8002010BD00200240AE
:101DC00030B505461F4887B0C16941F01001C161B7
:101DD000C06906A900F01000009001A800F036F9D3
:101DE0000498B0B100F052F940001749174AB0FB0F
:101DF000F1F11748491E0260416040F2E7320021CC
:101E0000C0E903218160816100F018FB040003D068
:101E100015E000F03BF9E8E70D4800F03DFB040059
:101E20000DD1362000F03CF8102D07D200222946B3
:101E3000362000F043F80748056000E0012407B0B1
:101E4000204630BD0010024040420F00001000400C
:101E5000E4640020100000200F4808B5816941F0BB
:101E600001018161816901F001010091C16941F0C5
:101E70008051C161C069002200F0805000900F21A4
:101E8000901E00F01BF80548416821F0E06141F028
:101E90000071416008BD00000010024000000140D8
:101EA000002809DB00F01F02012191404009800059
:101EB00000F1E020C0F8001170470000F0B40E4BB4
:101EC0001B680C46C3F30223C3F10705042D00D998
:101ED0000425191D072901D2002300E0DB1E01267D
:101EE00006FA05F1491E214099409E40761E164093
:101EF0003143F0BC01F06CBC0CED00E0064900F091
:101F0000070208684FF6FF03184040EA0220034A20
:101F100010430860704700000CED00E00000FA0577
:101F20002DE9F0470F46050061D0434E306800F0C0
:101F30000700B84209D2306820F00700384330600B
:101F4000306800F00700B84251D128683B4C810747
:101F500012D5400703D5606840F4E06060602878DF
:101F6000000703D5606840F4605060606068A9684D
:101F700020F0F000084360602878C00728D0686827
:101F8000012810D02168022810D0890700292EDAF4
:101F9000616821F0030101436160FFF7F1FE8046B3
:101FA00041F288390DE021688903EFE78901EDE707
:101FB000FFF7E6FEA0EB0801494502D90320BDE882
:101FC000F0876068696800F00C00B0EB810FEFD11A
:101FD000306800F00700B8420BD9306820F00700E5
:101FE00038433060306800F00700B84201D001206B
:101FF000E5E72878400705D56068E96820F4E060E7
:10200000084360602878000706D56068296920F4D5
:10201000605040EAC100606000F058F86168084A0A
:10202000C1F30311515CC8400649086006480068C6
:10203000FFF7C6FE0020C2E7002002400010024069
:102040006E74000818000020100000200F220260AB
:102050000C4A536803F003034360536803F0F00332
:102060008360536803F4E063C36052684FF4E06335
:1020700003EAD20202610448006800F00700086029
:10208000704700000010024000200240044805494B
:1020900000684968044AC1F30221515CC840704796
:1020A00018000020001002407E7400080448054912
:1020B00000684968044AC1F3C221515CC8407047B6
:1020C00018000020001002407E7400080E4A51687B
:1020D0000E4801F00C03042B11D0082B0FD10C4833
:1020E000C1F38343C903C05C0AD55168084AC1F3F0
:1020F0004041921E515C054A5043B0FBF1F07047DD
:1021000004494843704700000010024000127A0062
:102110005E74000800093D002DE9F84F040070D0FE
:102120002078C04DC00749D06868C0F381000128FD
:1021300007D06868C0F38100022809D16868C0032D
:1021400006D52868800339D560680028E7D035E0D7
:102150006068B0F5803F0BD010B1B0F5A02F11D062
:10216000286820F480302860286820F4802002E06D
:10217000286840F480302860606890B1FFF700FE66
:1021800006460AE0286840F480202860F0E700BF97
:10219000FFF7F6FD801B642873D828688003F7D505
:1021A0000CE0FFF7EDFD064605E000BFFFF7E8FD98
:1021B000801B6428F0D828688003F7D420789A4ED2
:1021C00080074FF001094FF0000839D5686810F01A
:1021D0000C0F07D06868C0F38100022809D1686835
:1021E000C00306D42868800714D52069012808D1C7
:1021F00010E02069B0B1C6F80090FFF7C1FD0746B6
:1022000005E00AE1FFF7BCFDC01B0228C4D828681E
:102210008007F7D52868616920F0F80040EAC1001E
:1022200028600DE0C6F80080FFF7AAFD074604E02D
:10223000FFF7A6FDC01B022823D828688007F7D423
:10224000207800072CD57948A169D9B1C0F8009051
:10225000FFF796FD074604E0FFF792FDC01B02283A
:102260000FD8686A8007F7D571484FF4FA510068B3
:10227000B0FBF1F0009000BF0098411E0091FAD22F
:102280000EE080E0C0F80080FFF77AFD074604E02A
:10229000FFF776FDC01B022875D8686A8007F7D45F
:1022A0002078400760D5E8690027C00008D4E869B5
:1022B00040F08050E861E869012700F0805000900C
:1022C0005C480168C90513D40168834641F48071F4
:1022D0000160FFF755FD824606E000BFFFF750FDA5
:1022E000A0EB0A0064284ED8DBF80000C005F5D545
:1022F000E06801280AD008B1052813D0286A20F028
:1023000001002862286A20F0040002E0286A40F0F8
:1023100001002862E06841F2883B98B1FFF730FD88
:1023200082460BE0286A40F004002862EEE700BF16
:10233000FFF726FDA0EB0A0159455AD8286A800705
:10234000F6D50CE0FFF71CFD824605E0FFF718FD0F
:10235000A0EB0A0159454CD8286A8007F6D41FB172
:10236000E86920F08050E861E06988B36968C1F3EA
:102370008101022944D00228C6F8608004D0FFF70A
:10238000FFFC044638E034E0FFF7FAFC074604E0BF
:10239000FFF7F6FCC01B02282BD828688001F7D471
:1023A000206AB0F5803F05D16868A16820F400304C
:1023B00008436860D4E908010843696821F474118E
:1023C00008436860C6F86090FFF7DAFC044606E050
:1023D00025E000BFFFF7D4FC001B022809D82868BD
:1023E0008001F7D51BE000BFFFF7CAFC001B0228E5
:1023F00002D90320BDE8F88F28688001F4D40EE0EC
:102400000128F7D06868226A00F48031914204D133
:10241000616A00F47010884201D00120EAE70020D0
:10242000E8E70000001002400000424280044242FF
:1024300018000020007000407047704710B504007D
:1024400003D094F83D0010B107E0012010BD00203A
:1024500084F83C00204600F01EF8022084F83D007D
:10246000211D206800F096FF012084F8460084F8C2
:102470003E0084F83F0084F8400084F8410084F86E
:10248000420084F8430084F8440084F8450084F84E
:102490003D00002010BD704790F83D10012901D08B
:1024A00001207047022180F83D100168CA6842F09F
:1024B0000102CA6000680E4988420ED00D49884268
:1024C0000BD0B0F1804F08D00B49884205D00B49A2
:1024D000884202D00A49884204D1816801F007018C
:1024E000062903D0016841F0010101600020704716
:1024F000002C01400034014000040040000800406E
:10250000000C0040704770B50446006801694FF048
:102510000005C943890715D4C168C943890711D487
:10252000E91E01610120207720688069800720462C
:1025300002D0FFF7E7FF04E000F098F8204600F033
:1025400096F8257720680169C943490717D4C168FF
:10255000C943490713D46FF00401016102202077B9
:102560002068806910F4407F204602D0FFF7CAFF40
:1025700004E000F07BF8204600F079F82577206829
:102580000169C943090716D4C168C943090712D4B0
:102590006FF008010161042020772068C06980077E
:1025A000204602D0FFF7AEFF04E000F05FF82046BF
:1025B00000F05DF8257720680169C943C90617D482
:1025C000C168C943C90613D46FF010010161082026
:1025D00020772068C06910F4407F204602D0FFF7C2
:1025E00091FF04E000F042F8204600F040F8257723
:1025F00020680169C943C90708D1C168C943C9072F
:1026000004D1891E0161204600F032F8206801697A
:10261000C943090609D4C168C943090605D46FF046
:10262000800101612046FFF707FF20680169C94367
:10263000490609D4C168C943490605D46FF0400171
:102640000161204600F01EF820680169C94389062F
:102650000BD4C168C943890607D46FF0200101611A
:102660002046BDE87040FFF7E8BE70BD7047704778
:1026700000680349884201D1FFF788BB704700001A
:1026800000100040704718B5034690F8420020281B
:1026900001D0022018BD61B15AB101201863002099
:1026A0005863184600F0B8FF0028F3D1196B0129D0
:1026B00001D0012018BD19680A684968009119689D
:1026C0000C3151E8002F42F0100241E80024002CA8
:1026D000F5D118BD70B50068184988422DD0184949
:1026E00088422AD1174918A000F0FCFF1B4D002496
:1026F00005EB84201AA1FDF7F8FD28B1641C0A2C13
:10270000F6DB0A2C0ED010E017A000F0EBFF05EB73
:1027100084200C49FDF701FE1048001F0168491C88
:102720000160EEE714A000F0DDFFBDE870404FF45B
:10273000806204491448FFF7A6BF70BD003801400D
:1027400000440040588D0020CAD5B5BDB5C4D0C5E1
:10275000CFA2CAC7A3BA25730D0A000098000020B3
:102760004E554C4C00000000D2D1BEADB4E6C8EBD3
:10277000CAFDD7E90D0A0000B6D3C1D0D2D1C2FA42
:10278000A3A1A3A100000000546400207047000032
:10279000F8B5016804460868CA684B6910F00F0F65
:1027A0004FF0000559D003F0010602F4907737434B
:1027B00065D0C10705D0D10503D5616C41F0010199
:1027C0006164410705D5D90703D0616C41F002016E
:1027D0006164810705D5D90703D0616C41F004011C
:1027E0006164010707D502F02001314303D0616C19
:1027F00041F008016164616C00293AD0800604D57B
:10280000900602D5204600F03AFE20684069616CCF
:10281000C0F38010090700D460B3204600F008FE22
:1028200020684069400621D52068143050E8001F18
:1028300021F0400140E80012002AF5D1E06BA8B178
:102840006D494163E06BFFF701F9002811D0E06B9F
:10285000416B01B0BDE8F040084783060FD59306F1
:102860000DD52046BDE8F84000F009BE2046FFF730
:102870008DFFF8BD2046FFF789FF6564F8BD266B24
:102880002023012E7CD1C6067AD5D60678D50868D5
:102890004868009048694FF00206400640D5E16B59
:1028A000086840680004000CE8D0A28D8242E5D997
:1028B000E085886920282DD020680C3050E8001F62
:1028C00021F4807140E80012002AF5D1206814300C
:1028D00050E8001F21F0010140E80012002AF5D164
:1028E0002068143050E8001F21F0400140E8001239
:1028F000002AF5D184F84230256320680C3050E876
:10290000001F21F0100140E80012002AF5D1E06B11
:10291000FFF778F86663A08DE18D401A81B22AE056
:10292000A08DE18D401A81B2E08D0028A6D000294B
:10293000A4D022680C3252E8000F20F4907042E8D4
:102940000007002FF5D12068143050E8002F22F046
:10295000010240E80027002FF5D184F842302563BA
:1029600020680C3050E8002F22F0100240E80023CD
:10297000002BF5D166632046FFF7ACFEF8BDFFE7FC
:1029800005062BD5150629D594F841002128F5D147
:10299000A068B0F5805F01D12069B0B1206A411C08
:1029A0002162216800784860E08C401E0004000C21
:1029B000E084E3D12068C16821F08001C160206813
:1029C000C16841F04001C160D8E7206A0088C0F3C7
:1029D00008004860206A801C2062E5E74006CDD5EB
:1029E0005006CBD5CA68204622F04002CA6084F85F
:1029F000413000F019F9C1E72134000870B5040036
:102A000004D094F84100002510B106E0012070BD0B
:102A100084F84050204600F023F8242084F8410038
:102A20002068C16821F40051C160204600F098FD83
:102A30002068016921F4904101612068416921F019
:102A40002A0141612068C16841F40051C160656498
:102A5000202084F8410084F842006563002070BDA6
:102A600070B586B000240094019402940394414E02
:102A70000368414902200322404DB34226D18B69AD
:102A800043F480438B618B6903F4804304938B6927
:102A900043F004038B618969039201F004010491FE
:102AA0000102CDE9001069462846FFF767F82815AE
:102AB000CDE90004694628460294FFF75FF800223A
:102AC00005212520FFF7FAF9252028E02C4EB342F6
:102AD00029D1CB6943F40033CB61CB6903F40033D4
:102AE00004938B6943F004038B618969039201F0BD
:102AF000040104910421CDE9001069462846FFF73E
:102B00003DF80820CDE90004694628460294FFF705
:102B100035F8002205212620FFF7D0F92620FFF7FF
:102B2000BFF906B070BD174DAB42FAD1CB6943F483
:102B30008023CB61CB6903F4802304938B6943F03A
:102B400008038B618969104D01F0080104914FF46D
:102B50008841CDE90010039269462846FFF70EF838
:102B6000E814CDE90004694628460294FFF706F808
:102B7000D7E7000000380140001002400008014083
:102B80000044004000480040000C014070472DE91F
:102B9000F843044690F841001F4616460D4620288B
:102BA00002D00220BDE8F8837DB176B100206064D8
:102BB000212084F84100FFF7E3F8A6848046E684EC
:102BC000A068B0F5805F02D003E00120EAE7206949
:102BD00010B12E4600250EE000260CE08021204694
:102BE00000F035FDA0B9AEB116F8010B21684860C0
:102BF000E08C401EE084E08C43464FF000020097DA
:102C00000028EBD14FF04001204600F020FD30B10C
:102C10000320C7E735F8020BC0F30800E6E72020E1
:102C200084F841000020BDE77047FEE730B5A1B051
:102C3000262232490FA8FDF709FB304CE08CADF895
:102C4000620054F8280F1990A088ADF86800E08859
:102C5000ADF86A00A0681B90E0681C902749092223
:102C600038310D461DA8FDF7F1FA607E8DF87D0024
:102C7000A07E8DF87E00E06920901B200E90382207
:102C800013A96846FDF7E2FA0DF13C0C9CE80F0031
:102C900000F056FC262219490FA8FDF7D7FA34F8A0
:102CA000020CADF8620020681990A088ADF86800A9
:102CB000E088ADF86A00A0681B90E0681C900922CB
:102CC00029461DA8FDF7C2FA607E8DF87D00A07E22
:102CD0008DF87E00E069209040200E90382213A9E4
:102CE0006846FDF7B3FA0FAC94E80F0000F028FC3B
:102CF00003490120087021B030BD00009C64002011
:102D00009828002010B54FF480620E490E48FFF756
:102D1000BAFCFEF703F90D4A00210D4802F0A0FAB3
:102D20000C4C0A4A0021206024320B4802F098FA29
:102D3000064A606048320021084802F091FAA0601B
:102D400010BD0000588D002054640020F07300086E
:102D5000F5320008000000201D1900088119000844
:102D60002DE9F04385B0002420480094019402949A
:102D70000394816941F040018161816901F0400162
:102D80000491816941F004018161816901F00401CC
:102D90000491816941F0080181618069DFF8508008
:102DA00000F008000490012220214046FEF7E2FFD7
:102DB000DFF84090012220214846FEF7DBFF202566
:102DC0000327012603970095CDE901646946404633
:102DD000FEF7D4FE03970095CDE9016469464846A5
:102DE000FEF7CCFE05B0BDE8F08300000010024005
:102DF00000180140000C01400C4810B50A49016060
:102E00004FF416514160002181600C22C160C0E97D
:102E100004128161C161FFF7F1FD002803D0BDE814
:102E20001040FEF779BD10BD003801400C64002051
:102E30000C4810B50A4901604FF4E13141600021AE
:102E400081600C22C160C0E904128161C161FFF799
:102E5000D5FD002803D0BDE81040FEF75DBD10BDD4
:102E600000440040546400200D4810B50B49016037
:102E70004FF416514160002181600822C160C0E911
:102E800004125201C0E90621FFF7B8FD002803D063
:102E9000BDE81040FEF740BD10BD000000480040F6
:102EA0009C640020FEE7FEE730B5A1B0054631E0A6
:102EB00026221B490FA8FDF7C9F9194CE08CADF883
:102EC0006200A06A1990A08DADF86800E08DADF8A1
:102ED0006A00206B1B90606B1C90092204F1380182
:102EE0001DA8FDF7B3F994F841008DF87D0094F822
:102EF00042008DF87E00606C209015F8010B0E905A
:102F0000382213A96846FDF7A1F90FAC94E80F0029
:102F100000F016FB28780028CAD121B030BD00008F
:102F20009C64002070B505464C48A2B0007800288B
:102F30007ED0022D00D90225262249490FA8FDF78F
:102F400085F9474CE08CADF8620054F8280F1990D1
:102F5000A088ADF86800E088ADF86A00A0681B9012
:102F6000E0681C903E49092238310E461DA8FDF745
:102F70006DF9607E8DF87D00A07E8DF87E00E069A1
:102F800020901B200E90382213A96846FDF75EF9A9
:102F90000DF13C0C9CE80F0000F0D2FA26223049DB
:102FA0000FA8FDF753F934F8020CADF86200206861
:102FB0001990A088ADF86800E088ADF86A00A068B4
:102FC0001B90E0681C90092231461DA8FDF73EF9D0
:102FD000607E8DF87D00A07E8DF87E00E0692090F7
:102FE00061200E90382213A96846FDF72FF90DF1E4
:102FF0003C0C9CE80F0000F0A3FA262218490FA809
:10300000FDF724F934F8020CADF86200206819903D
:10301000A088ADF86800E088ADF86A00A0681B9051
:10302000E0681C90092231461DA8FDF70FF900E069
:1030300012E0607E8DF87D00A07E8DF87E00E06954
:103040002090382213A968460E95FDF7FFF80FACC3
:1030500094E80F0000F074FA22B070BD98280020A8
:103060009C64002070B505464C48A2B0007800284A
:103070007ED0012D00D90125262249490FA8FDF750
:10308000E5F8474CE08CADF8620054F8280F199031
:10309000A088ADF86800E088ADF86A00A0681B90D1
:1030A000E0681C903E49092238310E461DA8FDF704
:1030B000CDF8607E8DF87D00A07E8DF87E00E06901
:1030C00020901B200E90382213A96846FDF7BEF809
:1030D0000DF13C0C9CE80F0000F032FA262230493A
:1030E0000FA8FDF7B3F834F8020CADF862002068C1
:1030F0001990A088ADF86800E088ADF86A00A06873
:103100001B90E0681C90092231461DA8FDF79EF82F
:10311000607E8DF87D00A07E8DF87E00E0692090B5
:1031200045200E90382213A96846FDF78FF80DF15F
:103130003C0C9CE80F0000F003FA262218490FA867
:10314000FDF784F834F8020CADF86200206819909D
:10315000A088ADF86800E088ADF86A00A0681B9010
:10316000E0681C90092231461DA8FDF76FF800E0C9
:1031700012E0607E8DF87D00A07E8DF87E00E06913
:103180002090382213A968460E95FDF75FF80FAC22
:1031900094E80F0000F0D4F922B070BD9828002008
:1031A0009C64002070B5514AA2B01278002A7DD0EC
:1031B000072800D90720072900D9072101F00F01AE
:1031C000000741EA1065262249490FA8FDF73EF89D
:1031D000474CE08CADF8620054F8280F1990A08895
:1031E000ADF86800E088ADF86A00A0681B90E06860
:1031F0001C903F49092238310E461DA8FDF726F8DC
:10320000607E8DF87D00A07E8DF87E00E0692090C4
:103210001D200E90382213A96846FDF717F80DF10E
:103220003C0C9CE80F0000F08BF9262230490FA8D7
:10323000FDF70CF834F8020CADF862002068199024
:10324000A088ADF86800E088ADF86A00A0681B901F
:10325000E0681C90092231461DA8FCF7F7FF607E4C
:103260008DF87D00A07E8DF87E00E0692090212001
:103270000E90382213A96846FCF7E8FF0DF13C0CCC
:103280009CE80F0000F05CF9262219490FA8FCF712
:10329000DDFF34F8020CADF8620020681990A088B8
:1032A000ADF86800E088ADF86A0000E01BE0A068B7
:1032B0001B90E0681C90092231461DA8FCF7C6FF50
:1032C000607E8DF87D00A07E8DF87E00E069209004
:1032D000382213A968460E95FCF7B8FF0FAC94E8A6
:1032E0000F0000F02DF922B070BD000098280020DA
:1032F0009C6400200A2003F02FFAFBE710B5502051
:1033000080F31188BFF34F8FBFF36F8F03F0CEFEB2
:1033100018B104494FF080500860002080F31188F4
:1033200010BD000004ED00E030B58FB028216846E4
:10333000FCF7B3FF14210AA8FCF7AFFF0121080432
:10334000CDE900100024029402250491CDE9075034
:103350004FF4E01009906846FEF7DEFE08B172B641
:10336000FEE70F20CDE90A054FF48060CDE90C405F
:1033700002210AA80E94FEF7D3FD002801D072B6F0
:10338000FEE70FB030BD70470148FFF7BCB8000042
:10339000E4640020F0B502681C4B1D4D1D4E1E4F0D
:1033A0001E4C4FF0804C984209D0A04207D0604597
:1033B00005D0A84203D0B04201D0B84204D122F0D7
:1033C000700E4A6842EA0E02984209D0A04207D025
:1033D000604505D0A84203D0B04201D0B84203D125
:1033E00022F44075CA682A434D6922F080022A43BC
:1033F00002608A68C2620A688262984201D0A04272
:1034000001D10969016301214161F0BD002C014036
:103410000004004000080040000C0040003401405F
:1034200010B5406A0021C185C184FFF7AFF910BD16
:1034300001680C3151E8002F22F4907241E800231A
:10344000002BF5D10168143151E8002F22F0010260
:1034500041E80023002BF5D1016B012909D1016856
:103460000C3151E8002F22F0100241E80023002B1C
:10347000F5D1202180F8421000210163704708B582
:1034800090F84210222901D0022008BD82684FF432
:1034900080539A4201D1016921B1816A9A421BD0BD
:1034A0004AB10AE00268816A5268C2F308020A80DF
:1034B000816A891C08E0026972B10268526802F0F0
:1034C0007F020A70816A491C8162C18D491E09040C
:1034D000090CC18503D01BE002685268F1E701685E
:1034E000CA6822F02002CA600168CA6822F48072A9
:1034F000CA6001684A6922F001024A61202180F80D
:10350000421000214163026B012A03D0FFF73EFB0A
:10351000002008BD016301680C3151E8002F22F042
:10352000100241E80023002BF5D101680A68D20699
:1035300002D50A6849680091818DFFF7CBF8E7E76B
:103540000FB4012208B54FF47A7314988DF8000077
:10355000694602A8FFF71BFB01B05DF814FB0000F1
:1035600070B5044600680169E26821F440511143D6
:1035700001612169A0680843616908432168CA683C
:1035800041F20C639A430243CA6020684169A26910
:1035900021F44071114341611E492068884202D1E3
:1035A000FEF784FD01E0FEF771FD00EBC00101EBC9
:1035B0000012606864218000B2FBF0F3B3FBF1F30A
:1035C0006FF018067343B2FBF0F5B2FBF0F605EBB3
:1035D0008305322303EB0515B5FBF1F5B6FBF1F6D8
:1035E00005F0F00505EB0615B2FBF0F6B2FBF0F0C6
:1035F000B0FBF1F06FF01802504306EB800003EBD4
:103600000010B0FBF1F0216800F00F002844886042
:1036100070BD00000038014081628285C2850021B2
:103620004164222180F84210016921B10168CA6811
:1036300042F48072CA6001684A6942F001024A613C
:103640000068C16841F02001C160002070472DE989
:10365000F041984617460E460446069D27E0681C32
:1036600025D02DB1FEF78CFBA0EB0800A8421ED997
:1036700020680C3050E8001F21F4D07140E800129F
:10368000002AF5D12068143050E8001F21F0010114
:1036900040E80012002AF5D1202084F8410084F887
:1036A0004200002084F840000320BDE8F08120683B
:1036B000006836EA000004D00020B842CFD00020D5
:1036C000F3E70120F9E700000148FFF761B80000C7
:1036D0000C6400200148FFF75BB800005464002030
:1036E000FEE700000FB4054B10B503A9044A029889
:1036F00000F05CF910BC5DF814FB000035420008D6
:10370000006400200FB41CB50246002007AC00295D
:103710000BD0491ECDE90021054B6A46214606988B
:1037200000F044F9009A002111701CBC5DF814FBF4
:10373000DB4000080FB4084B10B504A902AA039897
:1037400000F034F9044602A9002000F0D1FC204624
:1037500010BC5DF814FB0000F14000087CB5044685
:1037600000201D46164600290BD0491ECDE9004118
:10377000044B6A462946304600F018F9009A0021A9
:1037800011707CBDDB40000830B47446641E25789F
:10379000641CAB4200D21D46635D5B00E31830BC85
:1037A0001847012249005205D14201D1002801D019
:1037B0000020704701207047002800D001200143FD
:1037C000480002494008081AC00F70470000F07F07
:1037D0000907090E002804DB00F1E02080F800143E
:1037E000704700F00F0000F1E02080F8141D7047D2
:1037F00000487047FC63002002E008C8121F08C19F
:10380000002AFAD170477047002001E001C1121F61
:10381000002AFBD1704700002DE9FF5F82B0002134
:10382000DDE90430020DDDF840B0034318D044F662
:103830001050A2F2FF3242431514119801281FD0F4
:10384000A5EB0B00401C5FEA000A4FF000064E4F4C
:10385000DFF83891B046504615D5CAF1000413E0A0
:10386000119801244AA3012801D16FEA0B010298A3
:10387000119AC0E90031C0E9024206B0BDE8F09FEC
:10388000CBF10000DFE704460021404A491842EB33
:103890000450CDE9001012E0E00707D032463B4665
:1038A00040464946FCF728FF8046894632463B465B
:1038B00010461946FCF720FF06460F466410002C00
:1038C000EAD1DDE90401DDE90023BAF1000F06DAEF
:1038D000FCF712FF42464B46FCF70EFF05E0FCF7F3
:1038E0007DFF42464B46FCF779FF04460E46002218
:1038F000284BFCF7FBFF03D84FF0FF30014607E0F1
:103900000022254B20463146FCF74FFEFCF7D5FF41
:10391000102409E0002C0ADB0A220023FCF720FD1A
:10392000039B30321A55641E50EA0102F2D1641C26
:10393000039AC4F111031444119A012A03D00122FD
:1039400008430DD10AE0084304D000204FF0110BCA
:10395000119072E7A3EB0B056D1E0DE05B4504DDD6
:103960004FF0000205F1010504E003DA4FF0000218
:10397000A5F10105002AECD002981199C0E90231A5
:10398000C0E9004579E70000000014400000F03F66
:10399000300000000000F0430000E03F30380A280B
:1039A00001D2012070470020704700002DE9FF4F31
:1039B00095B09B468946064600250FE2252877D11B
:1039C00000242746F84A0121059400E0044316F834
:1039D000013F203B01FA03F01042F7D130782A284A
:1039E00011D06FF02F033078A0F13002092A16D8D9
:1039F000059A44F0020402EB820203EB42021044F7
:103A0000761C0590EFE759F8042B0592002A03DA9B
:103A1000504244F40054059044F00204761C30787F
:103A20002E2816D116F8010F44F004042A280DD0D0
:103A30006FF02F023078A0F13003092B09D807EB83
:103A4000870302EB4303C718761CF3E759F8047B9E
:103A5000761C30786C280FD006DC4C2817D06828EC
:103A60000DD06A2814D104E0742810D07A280FD120
:103A70000DE044F400140AE044F4801401E044F43E
:103A800040147278824202D104F58014761C761CB0
:103A9000307866280BD013DC582877D009DC002852
:103AA00075D04528F6D04628F4D047281AD19DE194
:103AB00018E0632835D0642879D0652812D195E1C3
:103AC000702873D008DC6728F1D069286FD06E2881
:103AD0000DD06F2806D1B5E073282CD0752875D08D
:103AE000782874D05A46179990476D1C75E1C4F335
:103AF0000250022809D003280DD0D9F8001004285C
:103B00000DD00D6009F1040967E1D9F80010EA173A
:103B1000C1E90052F6E7D9F800100D80F2E70D7008
:103B2000F0E719F8041B8DF8001000208DF8010053
:103B3000EA46012003E059F804AB4FF0FF3061077B
:103B40004FF0000102D40DE008F101018846B942AE
:103B50000FDA8045F8DB1AF808100029F4D108E0E4
:103B600008F1010188468142FADB1AF808100029A1
:103B7000F6D105985B46A0EB080721463846179A10
:103B800000F094FA284400EB080507E04DE029E135
:103B90000DE01AF8010B5A4617999047B8F1010841
:103BA000F7D25B4621463846179A13E142E00A22D3
:103BB0000092C4F302524FF0000A022A08D059F8CA
:103BC00004CB032A4FEAEC710AD00DE029E02AE089
:103BD00009F1070121F00702F2E802C1914609E06C
:103BE0000FFA8CFC4FEAEC71042A03D14FFA8CFCDB
:103BF0004FEAEC71002907DA0A460021DCF1000CDB
:103C000061EB02012D2202E0220504D52B228DF862
:103C10000420012203E0E20701D02022F7E79046CA
:103C200059E00A2102E010220DE010214FF0000AB5
:103C300000910BE010224FF0000A44F00404082722
:103C4000009203E008224FF0000A0092C4F30252EF
:103C5000022A05D059F804CB0021032A08D009E034
:103C600009F1070121F00702F2E802C1914605E0DF
:103C70001FFA8CFC042A01D10CF0FF0C4FF0000855
:103C8000220728D5702806D0009B83F0100353EA42
:103C90000A0305D00EE040228DF80420012208E03E
:103CA0005CEA010206D030228DF804208DF8050070
:103CB00002229046009B83F0080353EA0A030AD1CC
:103CC0005CEA010201D1620705D530228DF804209B
:103CD0004FF001087F1E582804D034A003900EA88E
:103CE00002900DE036A0F9E753466046009AFCF7D3
:103CF00037FB84460398825C0298401E0290027053
:103D00005CEA0100F0D1029806A9081A00F1200A25
:103D1000600702D524F4803400E00127574502DD16
:103D2000A7EB0A0000E0002000EB0A0100900598D4
:103D30004144401A0590E00306D45B462146179A99
:103D4000059800F0B3F90544002706E001A85A469B
:103D5000C05D179990476D1C7F1C4745F6DBE0035B
:103D60000CD55B462146179A059800F09FF905444B
:103D700004E030205A46179990476D1C0099481E60
:103D800000900029F5DC08E0029802995A46007874
:103D9000491C0291179990476D1CBAF10001AAF1D4
:103DA000010AF1DC65E100000928010030313233FD
:103DB0003435363738396162636465660000000067
:103DC0003031323334353637383941424344454651
:103DD0000000000000F058F90544761C30780028F7
:103DE0007FF4ECAD19B02846BDE8F08F620700D42F
:103DF000062709F1070222F0070CFCE80223E1463E
:103E000003F000485FEA080C02D00FF2702C0DE0BE
:103E10005FEA045C02D50FF2682C07E05FEAC47C1D
:103E200002D00FF2602C01E0AFF2700C4FF0FF38BF
:103E300023F00043CDF850C065280CD006DC45289F
:103E400009D046281DD047283DD13DE0662818D02E
:103E500067287ED138E00021112F01DB112000E01E
:103E6000781CCDE9000106A90EA8FFF7D5FCDDE915
:103E70000F010E9A03910021009207F1010A0491AB
:103E80004DE04FF000400097CDE9011006A90EA8C3
:103E9000FFF7C2FCDDE90F0203920E9B119900228D
:103EA000DDF80CA00093049211B9791C00EB010A13
:103EB000B7EB0A0004D4C0F1FF3007F1010A049007
:103EC000AAEB0700019044E0012F00DA012700214E
:103ED000112F01DD112000E03846CDE9000106A9CF
:103EE0000EA8FFF799FCDDE90F010E9A039100215E
:103EF00004910092BA4621070CD40399514500DA87
:103F00008A46BAF1010F05DD009AAAF10101515C60
:103F1000302908D0B84202DA10F1040F06DA012184
:103F2000CDE9011015E0AAF10101E9E7002805DC5F
:103F3000049901440491AAEB000102E0411C51459F
:103F400000DD8A460499401A401C01904FF0004061
:103F50000290200704D40198504501DBCDF804807D
:103F600000208DF84F0002980DF14F07B0F1004F7F
:103F700025D02B200E9002984FF0020800280CDA72
:103F8000404202902D200E9007E00A210298FCF793
:103F900037F93031029007F8011DB8F10001A8F19E
:103FA0000108F2DC02980028EFD1791E0E98087003
:103FB000307800F0200040F0450007F8020D12A80C
:103FC000C01B00F107081498007800B1012000EB35
:103FD0000A01019801EBE07105984144401A401E26
:103FE0000590E00306D45B462146179A059800F039
:103FF0005DF805441498007818B15A46179990470F
:104000006D1CE00324D55B462146179A059800F005
:104010004DF805441CE00498002807DBDDE90301A6
:10402000884203DD0098405C179901E01799302021
:104030005A469047049805F10105401C04900198E8
:10404000401E019004D12E205A46179990476D1CAE
:10405000BAF10001AAF1010ADDDC05E017F8010B55
:104060005A46179990476D1CB8F10001A8F1010854
:10407000F4DC5B462146179A0598ABE62D0000005C
:104080002B000000200000002DE9F041044600252F
:104090001E461746880404D405E039462020B04760
:1040A0006D1C641EF9D52846BDE8F0812DE9F0416C
:1040B000044600251E469046C80301D5302700E07F
:1040C0002027880404D505E041463846B0476D1CDA
:1040D000641EF9D52846BDE8F0814A68002A06D05A
:1040E0000A68531C0B6010704868401E4860704797
:1040F0000A68531C0B601070704770B50D46049928
:104100008C0099008918AA0010182246FCF79EF826
:1041100070BD0A680C30824204D14868824201D1E5
:10412000012070470020704710B503461978002021
:10413000752901D0AFF300800122995C00010C4683
:10414000303C092C02D8401830380CE00C46613C59
:10415000192C02D84018573805E00C46413C192C60
:1041600005D840183738521C042AE6DD10BD00205F
:10417000C04310BD0FB4F0B5D5B00020002552905B
:10418000ED435A980C462AAE5395002838D05DABC3
:10419000A02130465C9AFFF7E1FA002750A8C771CA
:1041A000002C24D02046283001F09CFFA1695391B7
:1041B000E569616A529100280DD0017800290AD082
:1041C000E16A142913D800902AAB10A2A02102A8FA
:1041D000FFF798FA08E06069801C08D02AAB0FA2AC
:1041E000A02102A8FFF78EFA28A8C77102AE10A07E
:1041F000009001962A46529B53995A9800F0F1FB81
:1042000055B0F0BC08BC04B0184700002573206E00
:104210006561722027257327000000002573206E3A
:1042200065617220656E64206F662066696C65004A
:104230002573000013B54FF6FF7301226946054848
:10424000FEF7A5FC034800680168C9434906FBD492
:1042500000981CBD0C64002010B5002821D0114B23
:104260000022001F196803E0814203D80A4649680A
:104270000029F9D152B11368841A9C4204D1006814
:1042800018441060104602E0506000E0186039B138
:1042900002680B1A934203D10B681A440260496802
:1042A000416010BD0464002070B5044688184E4A71
:1042B00080180246154646E023785B1965782D0282
:1042C000EB18A5782D04EB18E5782D06EE18237968
:1042D0009A1863791B029A18A3791B049A18E37938
:1042E0001B069B18227A1018627A12021018A27A02
:1042F00012041018E27A12061518701B1C262A46A2
:10430000F24142401046ED181B1A1A26F2415A405B
:1043100013464019ED1A1826F2416A4015461B183B
:10432000401B1026F2414240EE1810461B1A0D2584
:10433000EA4153408519F21A18461C26F0415040B4
:104340005A190C390C340C29B6D80B00FFF71CFA9B
:104350000D4A2724211E1C191613110E0B082900C3
:10436000E17A09060818A17A09040818617A090295
:104370000818217A0818E17909068A18A179090430
:104380008A18617909028A1821798A18E178090660
:104390004D19A17809044D19617809024D19217848
:1043A0004D1912231146D9415040411A1523084690
:1043B0004D40D841281A07240346E3414240D21A0F
:1043C00010241346E3415140C91A1C240B464840AF
:1043D000E341C01A42401223D841101A414008223A
:1043E000D041081A70BD0000EFBEADDE10B5044626
:1043F00000F004F8606800F031FB10BD70B50546B0
:104400000C35046908E06668A068241F00F0AEF966
:10441000204600F023FB3446AC42F4D170BDF8B521
:104420000446406800F01AFBA1680126491C30468A
:104430008840A1600090C00000F018FB6060002878
:1044400003D0002025460C3509E00020C043F8BD0C
:10445000C10062680B1DD5506268401C5550227A1D
:10446000314691408142F3D822696D602D600DE0A4
:10447000171F566838680099FBF7C2FE6068C900CC
:1044800041183A1D204600F0BDF83246AA42EFD14D
:104490000020F8BDFFB581B01F460E46FFF739FE7C
:1044A000002813D13468251F2868B84206D1284651
:1044B00014300399FBF719FF002804D07068A0425C
:1044C00004D06468EFE7284605B0F0BD0020FBE7A4
:1044D00070B504460D460846FBF700FF0B490A6815
:1044E00001462846FFF7E0FE237A01219940491E44
:1044F00001406268C900511803462A462046FFF76A
:10450000C9FF002800D0C06870BD0000F86300201B
:1045100070B50446002020600320A060402000F019
:10452000A5FA6060002806D020460C3020610021EA
:104530000123E06009E00020C04370BDCA00656847
:10454000161DA8516568491CA850257A1A46AA402C
:104550008A42F3D8002070BDFFB50546027A0124D7
:1045600001682046904081B01F46814204D328460E
:10457000FFF755FF002840D10298FBF7AFFE204916
:104580000A6801460298FFF78FFE0646287A3346EE
:104590008440641E34406868E10040180090014681
:1045A0002846029AFFF776FF040004D0E06800F086
:1045B000DDF8E7601EE00298FBF790FE1521C84287
:1045C0001BD2153000F052FA040016D02660039872
:1045D0002061204614300299FBF79FFE201DA06049
:1045E000E7606060221D2846009900F00BF82868FB
:1045F000401C2860002005B0F0BD0020C043FAE751
:10460000F863002070B515460C460646FFF781FD9D
:10461000002806D0304629460C3000F07AFD65604F
:1046200003E02946206800F074FD256070BD70B578
:10463000182000F01BFA04000ED001202070002585
:10464000E56060600820A060202000F00FFA206183
:10465000002802D02046656170BD204600F0FEF9BA
:10466000002070BD70B5104E0D0005D0002817D089
:104670000178012914D101E0304670BDA8420FD065
:1046800001220446114600F01FF8002808D0E16816
:10469000206989004550E068401CE060002070BD42
:1046A000284600F057F8E7E7FFFFFFFF002805D096
:1046B0000278012A02D1C2688A4201D800207047DC
:1046C0000069890040587047F8B50546C06817462C
:1046D0004318AA682869934219D90646541850000D
:1046E000844200D80446A00000F0C0F900280ED093
:1046F000AC602861002F0BD0E9680023009132469E
:104700001946FFF7FAFC304600F0A8F92869F8BD11
:104710003046F8BD002802D00178012901D00020E0
:104720007047C0687047002807D041684A1C04D011
:10473000491E416001D100F025B8704710B500282E
:1047400007D041684A1C04D0491E416001D100F0E5
:1047500019F810BD10B5002807D041684A1C04D0D4
:10476000491E416001D100F00DF810BD10B50028C0
:1047700007D041684A1C04D0491E416001D100F0B5
:1047800001F810BD70B500280AD00178002908D0C2
:1047900001290BD002291AD0032915D0042913D0DE
:1047A00070BD04460830FFF721FE0CE004460025EA
:1047B00004E0A9004058FFF7CDFF6D1CE068A84257
:1047C0002069F6D805E0204600F048F970BD04469F
:1047D000806800F043F9F6E700487047E063002086
:1047E000002804D041684A1C01D0491C4160704730
:1047F00070B504460D46102000F038F9002804D0AA
:10480000032101700121021D32C270BD002802D0B7
:104810000178032902D00020014670478268C168F0
:104820001046704770B50E46044692B0154612A168
:10483000104600F0C5F8002C0CD00020119010AAF2
:1048400010491094684600F08DF9002808D0002027
:1048500012B070BD0CA200212846FFF78BFCF6E7D2
:104860002A463146684600F097FD0446684600F047
:104870004FF92046ECE700003C737472696E673EA6
:10488000000000005562000877726F6E6720617249
:1048900067756D656E74730000487047E8630020AB
:1048A00010B5242000F0E2F8040004D00E4800689F
:1048B000002802D004E0002010BD002000F024F801
:1048C000002020700120606020460830FFF720FEA5
:1048D000002803D0204600F0C1F8ECE70020E0619A
:1048E0002062204610BD0000F863002010B50029AA
:1048F00004D0002802D00278002A01D0002010BD88
:104900000830FFF7E5FD10BD38B5084C21680029D7
:104910000AD1002807D1684601F06AFB00980028F8
:1049200001D101200090206038BD0000F863002014
:1049300070B50E4D140007D0002912D0002810D0F9
:104940000278002A0DD101E0284670BDA04208D0AF
:10495000C269531CC36123460830FFF7FDFD0028E0
:10496000F3D02046FFF7F6FEEEE70000FFFFFFFF63
:1049700070B504460D46FEF71FFF002805D12046FE
:104980002946FEF70EFF002801D0002070BD102040
:1049900000F06CF80028F9D0042101700121021DFB
:1049A00032C270BD002802D00178022901D0002057
:1049B000704780687047000000487047D863002047
:1049C00010B500280AD000225C231A54531E03603D
:1049D00043608260002902D000F00CF810BD027321
:1049E00010BD1CB505AC0194049C009400F020F8A7
:1049F0001CBD000070B504000D4616D0002D14D06B
:104A00000846FBF76BFC22460C32502802D229469E
:104A1000104608E006464C3E04A11046FBF77DFC1C
:104A20002046A9190F30FBF778FC70BD2E2E2E0002
:104A300070B50400059D04980FD05C26365D002EED
:104A40000BD10EC4024620462B46A02150300C3C10
:104A5000FEF784FE0020E034E07670BD002802D02E
:104A60000149496808477047F0630020002802D0D8
:104A70000149096808477047F063002010B501221A
:104A800001F0C9FB10BD70B506460C46481CFFF787
:104A9000EDFF050007D022463146FBF7D7FB00208B
:104AA0002855284670BD002070BD0000FEB50F4699
:104AB0000646FEF79DFE00210190016069463068C0
:104AC00001F0D4FB04460D4603CE401800998842FD
:104AD00001D0AFF3008000220B4B20462946FBF7A4
:104AE00027FC06D00022094B20462946FBF720FC74
:104AF00003D101980068022802D030C70020FEBD13
:104B00000020C043FEBD00000000F07F0000F0FF69
:104B100010B50446406BC11FF93902D1204600F0A0
:104B200005F82046283001F0B4FA10BD10B504464F
:104B3000806BFFF793FF0020A063E06310BD10B50A
:104B400001F0D2FA10BD70B5054601F0CDFA044669
:104B5000401C05D0A01C03D02146284600F01AF8BE
:104B6000204670BD10B5044606C400202070A06029
:104B7000E060012160612161E06120462030083C55
:104B800001F093FA0100024801D16063002010BDDA
:104B9000FFFFFFFF10B5C9B2283001F036FA10BD93
:104BA000F8B5054628300F46009001F06DFA686BA5
:104BB000C11FF93902D12846FFF7B8FF3946284608
:104BC000FFF7BDFF04462028F8D0092CF6D00A2CA8
:104BD000F4D00D2CF2D0601C57D0384EA01C59D008
:104BE00021462846FFF7D6FF7B2C3CD07D2C3AD0BF
:104BF0005B2C38D05D2C36D03A2C34D02C2C32D0D3
:104C0000222C32D020463038092833D92D2C31D0EF
:104C10001138192802D9613C192C3ED8394628464A
:104C2000FFF791FF014641381928F7D90846613846
:104C30001928F3D9284600F059FA009801F052FAE1
:104C400004461FA1FBF751FB002819D01EA12046E6
:104C5000FBF74BFB002816D01DA12046FBF745FBB8
:104C6000002814D016E06C6315E03946284600F0A1
:104C7000F9F810E03A462146284600F02DF80AE0FF
:104C8000FF20043001E0FF200530686303E0FF20CF
:104C90000630FAE76E63686BF8BD2C46083408E00E
:104CA0002846FFF777FF2869401C2861686A401C86
:104CB00068622869015D0029F2D1EBE7FFFFFFFF81
:104CC000747275650000000066616C736500000019
:104CD0006E756C6C00000000F7B50026F64384B0DA
:104CE000044646632D2903D10699FFF72CFF0146A0
:104CF00030292FD00846303809286FD82046069929
:104D0000FFF721FF014630380928F7D92546283515
:104D10002E2937D045294FD065294DD0204600F0A7
:104D2000E5F9284601F0DEF90546FEF761FD0021B0
:104D3000074601600A2202A92846FBF7F7FA024655
:104D4000386802280FD0E06A029B4019984214D0BC
:104D5000AFF3008020460699FFF7F5FE0146303894
:104D600009283BD9D2E7002901DA2DA200E033A2BD
:104D700021460698FFF7FEF933E0FF200230A263D8
:104D800060634AE020460699FFF7D9FE01463038B5
:104D90000A28204602D301F019FA22E0FFF7FAFEB2
:104DA00020460699FFF7CFFE014630380928F7D98B
:104DB000452901D065291FD120460699FFF7C3FE7A
:104DC00001462B2801D02D2904D120460699FFF752
:104DD000BAFE0146084630380A2805D3204600F0BE
:104DE00085F9304607B0F0BD20460699FFF7ABFEC7
:104DF000014630380928F7D9204600F077F969468E
:104E00002846FFF753FE002801D010A2B0E7FF208C
:104E10000330606301990098A0630020E163E1E73B
:104E2000746F6F20626967206E656761746976656B
:104E300020696E746567657200000000746F6F20F2
:104E400062696720696E7465676572007265616C7E
:104E5000206E756D626572206F766572666C6F7715
:104E600000000000F3B583B0002605468663701E7F
:104E700068634DE0A01C0FD0601C0ED01F2C10D812
:104E80002146284600F032F90A2C234607D069A2B1
:104E900029460498FFF76EF994E06CA21AE071A21B
:104EA000F6E75C2C34D128460499FFF74CFE7528B0
:104EB00015D022282CD05C282AD02F2828D0622870
:104EC00026D0662824D06E2822D0722820D07428BC
:104ED0001ED069A229460498FFF74CF972E02846D3
:104EE0000499FFF730FE04460027204630380A2890
:104EF00005D31138062802D3613C062CE9D2284696
:104F00000499FFF720FE7F1C0446042FEDDB04E02C
:104F100028460499FFF717FE0446222CAAD1E86A16
:104F2000401CFFF7A3FD07004CD028462830AF6394
:104F300001F0D8F8441C72E05C286DD16078641CE4
:104F400075280BD0662860D055DC222864D02F2825
:104F500062D05C2860D0622853D154E02046FFF72D
:104F6000E3F80190002802DA631E47A290E71B21B4
:104F7000C902411A4C48641D81422BD820785C2814
:104F800025D16078752822D1641C2046FFF7CCF823
:104F90000028E9DB37218902421A4349641D8A420D
:104FA00009D80199414A89028918081809218902FA
:104FB0004018019015E000903DA22946019B0498FD
:104FC000FFF7D8F82846FFF7B1FD05B0F0BD40A2C5
:104FD000019B5DE7372101988902411A32488142DD
:104FE000F5D902AA3946019801F048FA002808D1FB
:104FF00002983F1813E06E2809D0722809D074284F
:1050000009D0AFF30080082006E00C2004E00A205D
:1050100002E00D2000E009203870641C7F1C20781D
:10502000222889D13E70A86B381AE863FF2001302E
:105030006863CAE7636F6E74726F6C206368617235
:105040006163746572203078257800007072656D38
:10505000617475726520656E64206F6620696E707C
:1050600075740000756E6578706563746564206E94
:1050700065776C696E650000696E76616C696420A5
:105080006573636170650000696E76616C696420A8
:10509000556E69636F646520657363617065202771
:1050A000252E367327000000FF0300000000A0FC3F
:1050B000696E76616C696420556E69636F64652002
:1050C000275C75253034585C75253034582700002E
:1050D000696E76616C696420556E69636F646520E2
:1050E000275C7525303458270000000070B5054650
:1050F0000C46481C0CD0A01C0AD0284601F066F8CB
:105100002846283000F0E2FF844201D0AFF300804F
:1051100070BD486002680A600268516001607047B3
:10512000FCF73CFEFEF700F9FDF71AFEFDF79CFECA
:10513000FDF762FEFDF77CFE00F056F8FDF7E2FD9C
:1051400000F06EF8FEE70000F0B50B30154D20F0D2
:1051500007010024144A0FE003688B420BD38B42F3
:1051600005D95E1A43184768C3E9006700E0436841
:10517000136002C004E0021D10680028ECD1204634
:10518000002802D1286808B10020F0BD064A07486F
:105190001060074A121A22F00702C0E90024012019
:1051A0002860D7E70864002004640020549F002092
:1051B00050DF002010B5EFF3058149B9EFF31081FE
:1051C00031B908490968022905D1EFF3118111B1FC
:1051D0006FF0050403E0002408B101F0BDFA204699
:1051E00010BD00006C000020EFF3058058B9EFF30C
:1051F000108040B909490868022801D030B109E09F
:10520000EFF3118030B16FF00500704701200860A6
:10521000002070474FF0FF30704700006C00002006
:1052200010B5EFF3058060B9EFF3108048B90B4972
:105230000868022802D0012806D00BE0EFF31180A5
:1052400040B16FF0050010BD0220086001F0ECFADB
:10525000002010BD4FF0FF3010BD00006C0000209A
:10526000F0B585B04FEA01034FF00004EFF305817C
:105270000394A1BBEFF3108189BB2149096802297E
:1052800002D1EFF3118151BB48B3802618218DF86C
:10529000104004AD42B3176807B13D4697691FB18E
:1052A00039467F1E382F02D21779FF0702D000201F
:1052B00005B0F0BD576907B1BE08D2F808C0BCF10F
:1052C000000F0DD0D4685C2C18D312693AB137B1F5
:1052D0008DE806103246294601F001FE03900DE0EC
:1052E000D7685FB912694AB903AACDE90012B2B210
:1052F000294601F0C7FD012800D003940398D7E7A1
:105300006C000020F7B517460446FFF790F9060039
:105310002ED039462046FFF743FC606B5D2830D025
:105320002BE03A462046019900F040F905001BD0D9
:10533000FFF756FA01463046FFF794F90028284651
:1053400002D0FFF7FBF90FE0FFF7F8F939462046E6
:10535000FFF726FC606B2C280BD05D2811D00AA229
:1053600021463846FEF706FF3046FFF7E7F90020F2
:10537000FEBD39462046FFF713FC606B0028D0D1F4
:10538000EDE73046FEBD0000275D2720657870659B
:105390006374656400000000F8B50F4615460446C6
:1053A0001146FFF7FDFB78070AD4606B5B2807D036
:1053B0007B2805D012A221462846FEF7DBFE17E027
:1053C0002A463946204600F0F1F8060010D0B8070A
:1053D00010D429462046FFF7E3FB606B002809D074
:1053E0000CA221462846FEF7C5FE3046FFF7A6F977
:1053F0000020F8BD002D01D0606AA8603046F8BDDD
:10540000275B27206F7220277B27206578706563D4
:1054100074656400656E64206F662066696C652043
:10542000657870656374656400000000F7B582B04C
:105430000446FFF735FA060020D020460499FFF70E
:10544000AFFB606B7D2873D0FF270137606BB842DC
:1054500001D038A25EE00020A56BE26BA063E063A0
:10546000002D0AD000212846FAF74DFF002807D06A
:105470002846FFF7F3FA35A24CE0002005B0F0BD56
:105480000398C0070AD029463046FFF72FFA0028B4
:1054900004D02846FFF7E2FA36A23BE02046049902
:1054A000FFF77EFB606B3A2804D02846FFF7D6FA58
:1054B00036A22FE020460499FFF772FB2046049A9B
:1054C000039900F073F8009000280FD0FFF788F9D7
:1054D000024629463046FFF72BFA00280AD0284614
:1054E000FFF7BCFA0098FFF729F917E02846FFF705
:1054F000B5FA13E00098FFF721F92846FFF7AEFA56
:1055000020460499FFF74CFB606B2C280AD07D28BD
:105510000ED022A221460498FEF72CFE3046FFF75B
:105520000DF9AAE720460499FFF73AFB8EE7FFE75B
:105530003046A3E7737472696E67206F7220277D0F
:105540002720657870656374656400004E554C20B3
:105550006279746520696E206F626A656374206B7E
:105560006579206E6F7420737570706F72746564E6
:10557000000000006475706C6963617465206F627F
:105580006A656374206B657900000000273A272064
:10559000657870656374656400000000277D2720CE
:1055A000657870656374656400000000FEB50446AC
:1055B000406BFF2317460233C21A98422BD009DCF6
:1055C000401C5AD05C2850D07C2849D0FF38022893
:1055D00008D109E0012A37D0022A38D0032A39D06D
:1055E000042A3AD026A220E0A66BE56BC80608D4B0
:1055F0002A4600213046FAF786FE002801D025A26F
:1056000013E029463046FFF739FA002833D000214D
:10561000A163E163FEBD080711D520466946283025
:10562000FFF744FA002805D026A221463846FEF7A7
:10563000A1FD20E001990098FFF79AF919E0E16BCC
:10564000A06BFFF7D5F814E0E16BA06BF4E7FFF770
:10565000B3F90EE0FFF7C0F80BE0FFF71DF908E023
:105660003A462046FFF7E2FE03E03A462046FFF7BF
:1056700049FE0028CED10020FEBD18A2D5E70000CB
:10568000756E657870656374656420746F6B656EA4
:10569000000000005C7530303030206973206E6F80
:1056A0007420616C6C6F77656420776974686F75BE
:1056B00074204A534F4E5F414C4C4F575F4E554CF0
:1056C000000000007265616C206E756D626572206D
:1056D0006F766572666C6F7700000000696E7661A8
:1056E0006C696420746F6B656E00000010B5A2B029
:1056F000262219490FA8FAF7A9FD174CE08CADF83E
:105700006200A06A1990A08DADF86800E08DADF838
:105710006A00206B1B90606B1C90092204F1380119
:105720001DA8FAF793FD94F841008DF87D0094F8D8
:1057300042008DF87E00606C20900A200E90382286
:1057400013A96846FAF782FD0FAC94E80F00FDF745
:10575000F7FE22B010BD00009C6400202DE9F0414E
:10576000134C0F46054666692068001D00F0C4FE14
:10577000681C07D137B12168BDE8F0410D48091D0B
:1057800000F00ABF20683544B5424560216805D263
:10579000A068BDE8F041091D00F0E6BE6068091D83
:1057A00000F0E2FE206B854200D22563BDE8F08167
:1057B0001C0000201C6A00202DE9F041054600F085
:1057C000F7FE2D4C2069401C206120682B4F10B142
:1057D000E06930B32BE025602069012827D100263D
:1057E00006EB860007EB800000F0B0FE761C382E3A
:1057F000F6D3234800F0AAFE2148143000F0A6FE9C
:105800001F48283000F0A2FE1D483C3000F09EFEEC
:105810001B48503000F09AFE194860601430A060B8
:1058200005E02068E96AC06A884200D82560E06A1D
:10583000401CE0626864E86AA169884200D9A061FE
:1058400000EB800007EB8000291D00F0A5FE00F0B2
:10585000CFFEE06900280CD02068E96AC06A88425F
:1058600007D208494FF080500860BFF34F8FBFF355
:105870006F8FBDE8F08100001C0000206C650020E7
:10588000CC69002004ED00E038B500F091FE104C2A
:10589000A068C8B90F4800F059FE0E48143000F057
:1058A00055FE0C482060143060600A4B00202833FD
:1058B000009003F1500210210A2001F087F8A06047
:1058C00010B105A100F012FFBDE8384000F090BE15
:1058D00058000020306A0020546D72510000000012
:1058E00030B4026C0B46002A0BD0C1681144C16071
:1058F0004468A14201D30168C16030BC1846FAF780
:10590000A5BC30BC70472DE9F041856B17460446B5
:105910000026026C82B1C7B1E068FAF797FCE16833
:10592000206C091AE1602268914202D26168081A6B
:10593000E060022F16D017E02068A8B9606801F077
:1059400019FC0646002060600EE0A068FAF77EFCB5
:10595000216CA0680844A0606168884204D3206874
:10596000A06001E005B16D1E6D1CA5633046BDE869
:10597000F08110B5044690F8590058B101280CD0B8
:1059800002280FD0502080F31188BFF34F8FBFF350
:105990006F8FFEE7206B00F03FFE2046BDE8104011
:1059A00000F03ABE10BD00000F4841F658314207E2
:1059B00005D0C01D0C4A20F00700821A891A0B4A34
:1059C00000230144C2E900030839103A21F007011D
:1059D00011604B600B600B1AC0E9001393604FF02D
:1059E00000405360D06070470072002080000020AB
:1059F000144E154CA6F29C474FF08058DFF84C909F
:105A000012E000BF00F0D4FDF068C568281D00F06A
:105A100073FD2069401E2061E068401EE06000F0D8
:105A2000E7FD2846FFF7A5FFE0680028EAD13868BF
:105A30000128F9D9C9F80080BFF34F8FBFF36F8FEA
:105A4000F2E70000086A00201C00002004ED00E0DE
:105A500070B51D46049C51B1C4F80020C4E90F0183
:105A60000121204600F0E6FF84F84C5070BD246010
:105A7000F4E72DE9F0470E46DDE909841746824632
:105A800091009946089DA522206BFAF7FFFB6FF065
:105A90000301206B01EB8701084420F0070778071A
:105AA00007D0502080F31188BFF34F8FBFF36F8F63
:105AB000FEE72218315C82F83410315C11B1401CD1
:105AC0001028F6D3002684F84360382D00D33725FC
:105AD000E562C4E91356201D00F043FD04F11800EF
